:0400000047EF00F0D6
:10000800FACF28F0FBCF29F0E1CF2AF0E2CF2BF08E
:10001800D9CF2CF0DACF2DF0F3CF2EF0F4CF2FF08C
:1000280017EE54F00E0129B733A703D0ABEC3CF020
:1000380019D029B333A303D0B1EC3CF013D029B5C0
:1000480033A503D0AEEC3CF00DD0F2BC2EA105D008
:1000580038A103D022EC3AF005D029B933A902D04F
:1000680089EC3CF02FC0F4FF2EC0F3FF2DC0DAFF5F
:100078002CC0D9FF2BC0E2FF2AC0E1FF29C0FBFF3B
:1000880028C0FAFF110016EEFEF017EF2EF0A5ECCF
:100098003CF0020103B169EF05F06BC1D9FF6CC1F7
:1000A800DAFFDF500301A26FA239E832070BE80636
:1000B80001E0C7D002011D5101E0C3D001016D0567
:1000C8000301A86F20D001016D516B250001E86F75
:1000D800000E01016C210001E96F0301A851000124
:1000E800E85D906FE951D8A0E905916F420E926FD3
:1000F800020E936FC3EC39F0100E0301A86502D00D
:10010800A85F01D0A86BA851DEE1420E0001DA6FAA
:10011800020EDB6F6BC1DCF06CC1DDF001016D51CB
:10012800FC0F0001DE6FBEEC34F0DAC0ABF3DBC0CD
:10013800ACF3DCC0ADF3DDC0AEF36BC16EF06CC1E7
:100148006FF06DC170F0A3EC36F06EC0A3F36FC012
:10015800A4F370C0A5F371C0A6F30301AB51A319B2
:1001680009E1AC51A41906E1AD51A51903E1AE515D
:10017800A61911E0020102510F0B050A02E170EF06
:1001880039F002510F0B030AD8A41200F151D8B468
:10019800120070EF39F0020102510F0B030A03E15C
:1001A800E3512DEC3BF06BC1AFF36CC1B0F303012D
:1001B80020EE07F0AF51D926B051DA22DECF1EF279
:1001C800DECF1FF2DECF20F2DECF21F220EE0CF0E0
:1001D800AF51D926B051DA22DF500F0BD0EC35F0F1
:1001E800030120EE0BF0AF51D926B051DA22DF38E7
:1001F800070B0001646F030120EE0BF0AF51D92605
:10020800B051DA22DF500F0B57EC3BF0AFC370F060
:10021800B0C371F001016D51F1EC18F0AFC3A4F057
:10022800B0C3A5F072EC2FF0E66AAAEC22F0020146
:10023800066B076B086B096B0A6B0B6B0C6B0D6B12
:1002480012000301A239E832070B030A07E0A239BA
:10025800E832070B050A02E0C1EF31F00201A76B93
:100268006BC1B2F36CC1B3F3020E121901E08DD168
:10027800030120EE01F0B251D926B351DA2202016E
:100288006251DE1809E16351DE1806E16451DE1897
:1002980003E16551DE18D8A478D104A576D1B2C39C
:1002A80064F0B3C365F0E5EC30F0000907E1020142
:1002B8000251F00B0909026FF6EF31F0030120EE4D
:1002C80006F0B251D926B351DA22DECFE8F0DDCFFD
:1002D800E9F0E8C06EF0E9C06FF00001706B716B77
:1002E80001016D51FC0F0001726F490E736F010E11
:1002F800746F15EC2CF0EF0E646F050E656FAF0E82
:10030800666F010E676F696B100E686F6AEC34F0E8
:10031800FF0E646F050E656F6BC166F06CC167F008
:10032800FC0E01016D250001686F696BFF0E6923E2
:100338006AEC34F0660ECC6F020ECD6FAF0ECE6F46
:10034800010ECF6FEF0ED06F050ED16F01016D5109
:100358000C0F0001D26F16EC0CF0AB0E646F030E9D
:10036800656FAF0E666F010E676F696B040E686F7D
:100378006AEC34F06BC16EF06CC16FF06DC170F057
:10038800A3EC36F06EC0A3F36FC0A4F370C0A5F35E
:1003980071C0A6F30301A351AB1989E1A451AC19AB
:1003A80086E1A551AD1983E1A651AE1980E120EE91
:1003B80006F0B251D926B351DA2202010E51DE5CA1
:1003C8000F51DE5836E3030120EE06F0B251D9266C
:1003D800B351DA22DECFE8F0DDCFE9F002010E51A9
:1003E8000001E85F02010F510001E95BE8510201D9
:1003F8009E5D0001E95102019F590FE2010172510E
:10040800731101E154D7000E0001646F656F666FC8
:10041800050E676F01D84BD7ADD0030120EE06F06B
:10042800B251D926B351DA22DECF0EF2DDCF0FF268
:1004380013D0030120EE06F0B251D926B351DA22C7
:10044800DE50DE10DBE102010E29D8E10F29D6E1EA
:100458000E6B0F6B104B112B02010E2907E10F29B0
:1004680005E1102903E1112901E1C8D702510F0B59
:10047800080A08E1E4512DEC3BF00201E5512DECAE
:100488003BF007D002510F0B030A03E1E5512DECB5
:100498003BF0080E01016B27000E6C236D51000123
:1004A800E86FE96B030120EE05F0B251D926B3518C
:1004B800DA22DF500F0B0001EA6FEB6B0C0EEA2714
:1004C800000EEB23E851EA1903E1E951EB193AE090
:1004D8006BC1D9FF6CC1DAFFDF500301A06F0101C6
:1004E8006B4B6C2B6D51F40F0301B16F190EA76F95
:1004F8006BC1A4F06CC1A5F0B1050001A66F010E97
:10050800A76F0EC2A8F00FC2A9F010C2AAF011C2BC
:10051800ABF0760EAC6F020EAD6FA7C3AEF0EF0E68
:10052800AF6F050EB06F010EB16FC2EC20F0FF0E79
:1005380001016B250301A96FFF0E01016C21030165
:10054800AA6F04D00301B16BA96BAA6B02010383E4
:10055800F00E021701017251731101E1A8D6A9C367
:1005680064F0AAC365F0B1C366F0010E0001676FBD
:1005780001D89DD605000101FA6E7251FD6E7351C6
:10058800FE6EF850FF6EFA501200030120EE01F0E3
:10059800B251D926B351DA2202011E51DE1809E1FF
:1005A8001F51DE1806E12051DE1803E12151DE1843
:1005B80008E0C1EC31F0020E0201121901E177D610
:1005C8001200030120EE06F0B251D926B351DA2207
:1005D800DECFE8F0DDCFE9F0E8C06EF0E9C06FF0FB
:1005E8000001706B716B01016D51FC0F0001726F9E
:1005F800490E736F746B010E15EC2CF0EF0E646FDF
:10060800050E656FAF0E666F010E676F696B100E92
:10061800686F6AEC34F0FF0E646F050E656F6BC18E
:1006280066F06CC167F0FC0E01016D250001686F72
:10063800696BFF0E69236AEC34F0220ECC6F020E50
:10064800CD6FAF0ECE6F010ECF6FEF0ED06F050ED0
:10065800D16F01016D510C0F0001D26F16EC0CF037
:10066800AB0E646F030E656FAF0E666F010E676F9A
:10067800696B040E686F6AEC34F06BC16EF06CC184
:100688006FF06DC170F0A3EC36F06EC0A3F36FC0CD
:10069800A4F370C0A5F371C0A6F30301A351AB196D
:1006A80009E1A451AC1906E1A551AD1903E1A65120
:1006B800AE1903E0C1EC31F07ED720EE06F0B2515E
:1006C800D926B351DA2202010A51DE5C0B51DE58F9
:1006D80046E3030120EE06F0B251D926B351DA22DF
:1006E800DECFE8F0DDCFE9F002010A510001E85F52
:1006F80002010B510001E95BE85102019C5D000118
:10070800E95102019D591FE20091F00E0217010103
:100718007251731115E00201009B000E0001646F15
:10072800656F666F676F01D80BD005000101FA6E1F
:100738007251FD6E7351FE6EF850FF6EFA50120042
:100748000201039336D0030120EE06F0B251D926F8
:10075800B351DA22DECF0AF2DDCF0BF221D003014A
:1007680020EE06F0B251D926B351DA22DE50DE105F
:1007780014E102010A2911E10B290FE1030120EE1E
:1007880006F0B251D926B351DA22DECF0AF2DDCF14
:100798000BF202010C4B0D2B03D0C1EC31F00BD73F
:1007A80002010A2909E10B2907E10C2905E10D29B4
:1007B80003E10483020E01D702510F0B030A03E180
:1007C800E5512DEC3BF0010E0201D86FB2C364F085
:1007D800B3C365F087EC33F0030120EE05F0B251A6
:1007E800D926B351DA22DF500F0B1BE0080EB225D1
:1007F80000017A6F000E0301B32100017B6F030132
:1008080020EE05F0B251D926B351DA22DF500F0B92
:1008180000017C6F02EC17F07AC06BF17BC06CF1C1
:1008280005D0080E01016B27000E6C2301016D51E4
:100838000001E86FE96B030120EE05F0B251D926FB
:10084800B351DA22DF500F0B0001EA6FEB6B0C0E8D
:10085800EA27000EEB23E851EA1904E1E951EB1904
:1008680001E19BD06BC1D9FF6CC1DAFFDF500301F6
:10087800A06F01016B4B6C2B030120EE05F0B25108
:10088800D926B351DA22DF500F0B0001E86FE85187
:1008980001016D5DF40F0301B16F20EE05F0B25157
:1008A800D926B351DA22DF500F0B190FA76FA051C9
:1008B80029E06BC1A4F06CC1A5F0B1050001A66FD9
:1008C800010EA76F0AC2A8F00BC2A9F00CC2AAF0C9
:1008D8000DC2ABF0320EAC6F020EAD6FA7C3AEF017
:1008E800EF0EAF6F050EB06FB16BC2EC20F0FF0ECC
:1008F80001016B250301A96FFF0E01016C210301A2
:10090800AA6F4FD001016D510001E86FE96B030137
:1009180020EE05F0B251D926B351DA22DF500F0B81
:100928000001EA6FEB6B0D0EEA27000EEB23E8518E
:10093800EA5DEB51800AEC6FE951800AEC592DE22F
:100948006BC1A4F06CC1A5F00301B1050001A66F4D
:10095800010EA76F0AC2A8F00BC2A9F00CC2AAF038
:100968000DC2ABF0220EAC6F020EAD6FA7C3AEF096
:10097800EF0EAF6F050EB06FB16BC2EC20F06BC11C
:100988007AF06CC17BF00301B10500017C6F02ECC9
:1009980017F07AC06BF17BC06CF10301B16BA96BE6
:1009A800AA6B010E0201D86FD06BD16BEE6B009968
:1009B800038300A14FD0030120EE05F0B251D926E0
:1009C800B351DA22DFAA43D002010091F00E0217D8
:1009D80001017251731118E00201009BA9C364F070
:1009E800AAC365F0B1C366F0010E0001676F01D8B4
:1009F8000BD005000101FA6E7251FD6E7351FE6E47
:100A0800F850FF6EFA5012000201039302BB00BBBC
:100A1800D2D500B302D000A7CED5010E0001796F60
:100A2800A10E7A6F030E7B6F0201ED51B2EC27F035
:100A380000090AE1000EE16FE26FE36FE46F01EC79
:100A48002BF002010097B7D510EC22F0B4D58CEC4E
:100A580031F0B1D5F00E021701017251731118E08F
:100A68000201009BA9C364F0AAC365F0B1C366F094
:100A7800010E0001676F01D80BD005000101FA6E65
:100A88007251FD6E7351FE6EF850FF6EFA501200EF
:100A9800020102BB00BB8FD500B302D000A78BD5E3
:100AA800010E0001796FA10E7A6F030E7B6F0201B0
:100AB800ED51B2EC27F00009C7E1000EE16FE26FDB
:100AC800E36FE46F01EC2BF0BCD701017251731195
:100AD800D8B41200A2EC3CF00001E86FE8B713D0DC
:100AE8006BC164F06CC165F06DC166F0030E676F91
:100AF80005000101FA6E7251FD6E7351FE6EF850D9
:100B0800FF6EFA5012006BC164F06CC165F06DC1E4
:100B180066F0020E676F05000101FA6E7251FD6EF4
:100B28007351FE6EF850FF6EFA501200020103B1C5
:100B3800ACEF09F00001C26BC36BC46BC56BC66B2D
:100B4800CB69CC69CD69CE690201F16B0251F00B1A
:100B58000209026FDAC2CFF000A50AD17D0E17256F
:100B6800F66EF76A7F0EF7220800F5CFA0F09851CD
:100B78000001A025A16F000EA0BFFF0E0201992160
:100B88000001A26FA36BA46B0C0ED890A137A237FB
:100B9800A337A437E82EF9D7A1C064F0A2C065F046
:100BA800A3C066F0A4C067F07D0E686F696B6A6BBE
:100BB8006B6BAAEC30F064C071F065C072F066C06F
:100BC80073F067C074F00201E251E5EC36F07D0E77
:100BD80002011C25F66EF76A7F0EF7220800F5CF92
:100BE800A0F09A510001A025A16F000EA0BFFF0E32
:100BF80002019B210001A26FA36BA46B0C0ED8907D
:100C0800A137A237A337A437E82EF9D7A1C064F0DB
:100C1800A2C065F0A3C066F0A4C067F07D0E686F3F
:100C2800696B6A6B6B6BAAEC30F064C071F065C0DD
:100C380072F066C073F067C074F00201E351E5EC2E
:100C480036F00201E251AAEC2EF00201E351AAECBF
:100C58002EF09EC0A0F09FC0A1F00201DB51000160
:100C6800A26F0201DC510001A36FA46BA56BD60E25
:100C7800A203F3CFA6F0F4CFA7F0A86BA96BA30348
:100C8800F350A727F450A823000EA9230B0EA203A4
:100C9800F350A727F450A823000EA923D60EA403C7
:100CA800F350A827F450A9230B0EA303F350A82749
:100CB800F450A923000EA203F350A827F450A92347
:100CC800D60EA503F350A9270B0EA403F350A927AA
:100CD800000EA303F350A927000EA203F350A9277F
:100CE800FF0EA625AA6FFF0EA721AB6FFF0EA82146
:100CF800AC6FFF0EA921AD6FAA51A003F3CFAEF0E0
:100D0800F4CFAFF0B06BB16BA103F350AF27F45041
:100D1800B023000EB123AB51A003F350AF27F4501A
:100D2800B023000EB123AB51A103F350B027F45008
:100D3800B123AC51A003F350B027F450B123AC5108
:100D4800A103F350B127AD51A003F350B127CF5100
:100D58000E0D080EF324D96E040EF420DA6EAEC020
:100D6800DEFFAFC0DEFFB0C0DEFFB1C0DEFF17D1CF
:100D78007D0E1725F66EF76A7F0EF7220800F5CF6D
:100D8800A0F094510001A025A16F000EA0BFFF0E96
:100D9800020195210001A26FA36BA46B0C0ED890E1
:100DA800A137A237A337A437E82EF9D7A1C064F03A
:100DB800A2C065F0A3C066F0A4C067F07D0E686F9E
:100DC800696B6A6B6B6BAAEC30F064C071F065C03C
:100DD80072F066C073F067C074F00201E451E5EC8C
:100DE80036F07D0E02011C25F66EF76A7F0EF7229B
:100DF8000800F5CFA0F096510001A025A16F000EC4
:100E0800A0BFFF0E020197210001A26FA36BA46B84
:100E18000C0ED890A137A237A337A437E82EF9D7FC
:100E2800A1C064F0A2C065F0A3C066F0A4C067F0DA
:100E38007D0E686F696B6A6B6B6BAAEC30F064C0EF
:100E480071F065C072F066C073F067C074F002019B
:100E5800E551E5EC36F00201E451AAEC2EF002016E
:100E6800125103E1E551AAEC2EF09EC0A0F09FC0FC
:100E7800A1F022EEDBF0DECFA2F0DDCFA3F000017F
:100E8800CF510E0D060EF324D96E040EF420DA6E3F
:100E9800DECFA4F0DDCFA5F0A451A66FA551A76FB2
:100EA800A86BA96BA629AA6F000EA721AB6F000E2D
:100EB800A821AC6F000EA921AD6FAA51A203F3CFF0
:100EC800AEF0F4CFAFF0B06BB16BA303F350AF2724
:100ED800F450B023000EB123AB51A203F350AF2757
:100EE800F450B023000EB123AB51A303F350B02745
:100EF800F450B123AC51A203F350B027F450B123FE
:100F0800AC51A303F350B127AD51A203F350B1275D
:100F1800FF0EAE25B26FFF0EAF21B36FFF0EB021EB
:100F2800B46FFF0EB121B56FB251A003F3CFB6F085
:100F3800F4CFB7F0B86BB96BA103F350B727F450EF
:100F4800B823000EB923B351A003F350B727F450C8
:100F5800B823000EB923B351A103F350B827F450B6
:100F6800B923B451A003F350B827F450B923B451AE
:100F7800A103F350B927B551A003F350B927CF51B6
:100F88000E0D080EF324D96E040EF420DA6EB6C0E6
:100F9800DEFFB7C0DEFFB8C0DEFFB9C0DEFF02016A
:100FA800E95177EC3AF0000901E1C8D00201E951B2
:100FB8002DEC3BF00201E95126EC37F08BC0C7F06D
:100FC8008CC0C8F08DC0C9F08EC0CAF0CA5107E104
:100FD8001F0EC75DAC0EC859DF0EC9594AE3C7C01A
:100FE800A0F0C8C0A1F0C9C0A2F0CAC0A3F00D0EFD
:100FF80005D0D890A333A233A133A033E82EF9D774
:101008007D0EA003F3CFA4F0F4CFA5F0A66BA76BD9
:10101800A103F350A527F450A623000EA723A0038D
:10102800F350A527F450A623000EA7237D0EA20394
:10103800F350A627F450A723000EA103F350A627C8
:10104800F450A723000EA003F350A627F450A723BB
:101058007D0EA303F350A727000EA203F350A72782
:10106800000EA103F350A727000EA003F350A727F3
:1010780049D0C7C0A0F0C8C0A1F0C9C0A2F0CAC07A
:10108800A3F07D0EA003F3CFA4F0F4CFA5F0A66BD8
:10109800A76BA103F350A527F450A623000EA7239E
:1010A800A003F350A527F450A623000EA7237D0E16
:1010B800A203F350A627F450A723000EA103F35070
:1010C800A627F450A723000EA003F350A627F45038
:1010D800A7237D0EA303F350A727000EA203F35006
:1010E800A727000EA103F350A727000EA003F35073
:1010F800A7270D0E05D0D890A733A633A533A43360
:10110800E82EF9D7A4C0BAF0A5C0BBF0A6C0BCF0C1
:10111800A7C0BDF0BA510201C85D0001C36FBB5141
:101128000201C9590001C46FBC510201CA5900012A
:10113800C56FBD510201CB590001C66FCF6BCF51AE
:101148000E0D040EF324D96E040EF420DA6EDE04BC
:1011580001E08ED0CF510E0D080EF324D96E040E87
:10116800F420DA6EDE50DE10DE10DE1001E180D0F1
:10117800CF510201DA194BE00001CF510E0D080ED4
:10118800F324D96E040EF420DA6EDE50C35DDE500F
:10119800C459DE50C559DE50C6592DE2CF510E0D47
:1011A800080EF324D96E040EF420DA6EDECFA0F018
:1011B800DECFA1F0DECFA2F0DECFA3F0C351A05D59
:1011C800A46FC451A159A56FC551A259A66FC651A4
:1011D800A359A76FCF510E0D080EF324D96E040E34
:1011E800F420DA6EA4C0DEFFA5C0DEFFA6C0DEFFD5
:1011F800A7C0DEFF0CD0CF510E0D080EF324D96E18
:10120800040EF420DA6EDE6ADE6ADE6ADD6A000148
:10121800CF510E0D080EF324D96E040EF420DA6EA9
:10122800DE50CB5DDE50CC59DE50CD59DE50CE5964
:101238001FE3CF510E0D080EF324D96E040EF420CF
:10124800DA6EDE50DE10DE10DE1012E0CF510E0D29
:10125800080EF324D96E040EF420DA6EDECFCBF03C
:10126800DECFCCF0DECFCDF0DECFCEF0010EC26FF8
:10127800CF2B0F0ECF6563D7C2055FE1CBC0C8F295
:10128800CCC0C9F2CDC0CAF2CEC0CBF2CE5106E175
:10129800CB29FF0ECC590F0ECD5918E3CBC064F003
:1012A800CCC065F0CDC066F0CEC067F07D0E686F2B
:1012B800696B6A6B6B6BAAEC30F00C0ED8906437D4
:1012C800653766376737E82EF9D71FD0CBC0A0F04F
:1012D800CCC0A1F0CDC0A2F0CEC0A3F00C0ED89027
:1012E800A037A137A237A337E82EF9D7A0C064F0FA
:1012F800A1C065F0A2C066F0A3C067F07D0E686F5C
:10130800696B6A6B6B6BAAEC30F064C0BEF065C0A9
:10131800BFF066C0C0F067C0C1F0BEC071F0BFC00A
:1013280072F0C0C073F0C1C074F00201E951E5EC7D
:1013380036F00201E951AAEC2EF0020E0201121950
:10134800D8A412000251F00B0809026FF6EF31F031
:10135800A2EC3CF00001A06FA0A911D0000E646FB0
:10136800656F666F020E676F05000101FA6E7251B4
:10137800FD6E7351FE6EF850FF6EFA5012000101B7
:1013880072517311D8B41200000E0001646F656FBA
:10139800666F030E676F05000101FA6E7251FD6EEC
:1013A8007351FE6EF850FF6EFA50120091C169F049
:1013B800000E6A6FFEEC28F079C171F07AC172F004
:1013C8007BC173F07CC174F090EC28F0010194515A
:1013D800D2EC29F00101910501E0B6D187C166F090
:1013E800390ED4EC3AF09BC17FF0010E00017F1753
:1013F8000101D8909A350001806F01019339F00BF3
:10140800000180117F11666F1D0ED4EC3AF07EC08A
:101418007FF0030E00017F1795C180F0010E801741
:10142800D8908037D890803701019239F00B0001AD
:1014380080117F11666F1E0ED4EC3AF001019751AE
:10144800981160E097C182F098C183F00001846B25
:10145800856B42D082C064F083C065F084C066F0BA
:1014680085C067F07D0E0001686F696B6A6B6B6BF6
:10147800EEEC2EF022D082C064F083C065F084C008
:1014880066F085C067F0FA0E0001686F696B6A6BD9
:101498006B6BEEEC2EF011D082C064F083C065F067
:1014A80084C066F085C067F0F40E0001686F010E15
:1014B800696F6A6B6B6BEEEC2EF064C082F065C0EE
:1014C80083F066C084F067C085F00FD00001826B9E
:1014D800836B846B856B09D001019351070ABAE0CD
:1014E8000F0AC9E0010AD8E0F1D7010192290001E9
:1014F8007F6F05D0D89085338433833382337F2F31
:10150800F9D705D00001826B836B846B856B82C031
:1015180066F0240ED4EC3AF07DC066F01F0ED4ECD1
:101528003AF0260EEAEC39F0866F0C0E010192199A
:1015380006E1070E931909E0080E931906E00B0E51
:10154800921906E1070E931903E10001868702D07C
:1015580000018697868586C066F0260ED4EC3AF0A0
:10156800310EEAEC39F0866FF80E8617030E8613F3
:1015780086C066F0310ED4EC3AF00A0E0001666FB0
:10158800370ED4EC3AF0120E0101AA1929E1070E20
:10159800931903E0080E931915E1310EEAEC39F0BE
:1015A800866F869F86C066F0310ED4EC3AF0400E06
:1015B8000001666F2F0ED4EC3AF00001666B300E16
:1015C800D4EC3AF0090E010193190AE1310EEAEC64
:1015D80039F0866F868F86C066F0310ED4EC3AF00B
:1015E800330EEAEC39F0866F869D868199C17FF0CB
:1015F800010E7F17060E806FD8907F37802FFCD79B
:101608007F51861386C066F0330ED4EC3AF099C148
:101618007FF0010E00017F17D8907F37D8907F3573
:10162800FF0A1D0B866F86C066F03B0ED4EC3AF0BD
:10163800010186510001666F200ED4EC3AF085C195
:1016480066F0210ED4EC3AF00001666B0D0ED4EC76
:101658003AF00001666B0E0ED4EC3AF00001666BAE
:101668000F0ED4EC3AF0120E0101AA1968E1090E26
:1016780093191EE1800E795D130E7A59610E7B591C
:10168800330E7C5915E37905F70E7A59CB0E7B5941
:101698003C0E7C590DE2020E0001666F360ED4EC4A
:1016A8003AF0640E0001666F3A0ED4EC3AF028D096
:1016B800090E93191FE1800E795D1A0E7A59700E82
:1016C8007B59180E7C5916E3410E795DDD0E7A5967
:1016D8004A0E7B591F0E7C590DE2020E0001666FFF
:1016E800360ED4EC3AF07F0E0001666F3A0ED4EC59
:1016F8003AF006D0030E0001666F360ED4EC3AF0CD
:10170800090E010193190FE199050DE1650E00011C
:10171800666F3A0ED4EC3AF0190E0001666F3B0E74
:10172800D4EC3AF00CD0650E0001666F3A0ED4EC9A
:101738003AF01D0E0001666F3B0ED4EC3AF0000142
:101748006669120ED4EF3AF07DC171F07EC172F075
:101758007FC173F080C174F0C3EC32F081C171F0C5
:1017680082C172F083C173F084C174F0F5EC32F079
:10177800010186510001666F250ED4EC3AF085C14F
:1017880066F0260ED4EC3AF00A0EEAEC39F0866FD1
:101798009F0E86170101AC39E846E00B000186135D
:1017A80086C066F00A0ED4EC3AF0C80E0001866FC7
:1017B8000101955102E00001868986C066F0300E6D
:1017C800D4EC3AF00001816B0ED0880E8125D96ED9
:1017D800DA6A010EDA22DF50666F8151280FD4ECE5
:1017E8003AF00001812B010190510001815DEDE388
:1017F8000101905108E0900510090001666F270E5D
:10180800D4EC3AF005D00001666B270ED4EC3AF020
:10181800000166693E0ED4EC3AF0000166693F0E9D
:10182800D4EF3AF00101656B646B626B606B616BBE
:10183800CCC0A4F0CDC0A5F0100E0001A66F010E1B
:10184800A76F000EA86F010EA96F5CEC24F0D251AF
:10185800D36FD46B0F0ED327000ED423040ED56F8D
:10186800D435D433D333D52FFBD7D3510101636F8C
:10187800635104E1010E636F626B0AD0D2C0D3F0EA
:101888000F0E0001D317010ED8A4000E0101626FDC
:10189800620541E1646B6351100DF350F00F656F01
:1018A8001ED0200E01016425D96EDA6A010EDA22F3
:1018B800100E6425E96EEA6A010EEA22EF50000173
:1018C800D36F010165510001D025E96E000ED121C9
:1018D800EA6EEF50D319DF6E0101642B652B63515B
:1018E8000001D36FD46BD33BD43BF00ED417D35144
:1018F8000F0BD413F00ED317010165510001D56FFA
:10190800D66BD351D55DD651800AD76FD451800A92
:10191800D75963E2C6D70001D251D025D36F000E44
:10192800D121D46FD2510F0BD35D0101606F00013B
:10193800D451D8A0D4050101616F656B0001D25163
:101948000F0B010165610FD065516025D96E000E3E
:101958006121DA6E300E6525E96EEA6A010EEA2227
:10196800DFCFEFFF16D00001D2510F0B010165192F
:1019780009E1300E6525D96EDA6A010EDA22800E89
:10198800DF6E07D0300E6525D96EDA6A010EDA22CD
:10199800DF6A652B0F0E6565D1D7656B200E65254F
:1019A800D96EDA6A010EDA22000E6525E96EEA6A56
:1019B800010EEA22EF500001D36F300E01016525B8
:1019C800E96EEA6A010EEA22EF500001D319DF6ED0
:1019D8000101652B0F0E6565E1D7500E0001646F9C
:1019E800010E656F676B666B696B100E686F9AEC1A
:1019F80039F00101656B51D00101646B400E64251B
:101A0800D96EDA6A010EDA2265510001D36FD46B00
:101A1800D33BD43BF00ED417D3510F0BD413F00E95
:101A2800D317D0C0D5F0D1C0D6F0D351D527D451D3
:101A3800D623010164510001D525E96E000ED62197
:101A4800EA6EEF50D76F500E01016425E96EEA6A1D
:101A5800010EEA22EF500001D719DF6E0101642B55
:101A68000F0E6465CBD7500E0001646F010E656FD1
:101A7800400E666F010E676F696B100E686F6AEC37
:101A880034F0500E906F010E916FCCC092F0CDC023
:101A980093F0C3EC39F00101652B0001D369D469D7
:101AA800010163510001D56FD66BD351D527D451AD
:101AB800D623010165510001D76FD86BD551D75D89
:101AC800D851800AD96FD651800AD95995E30101B6
:101AD800656B400E6525D96EDA6A010EDA22200E92
:101AE8006525E96EEA6A010EEA22EF500001D36F1C
:101AF800500E01016525E96EEA6A010EEA22EF50EF
:101B08000001D319DF6E0101652B0F0E6565E1D762
:101B1800400E0001906F010E916FCCC092F0CDC0C5
:101B280093F0C3EC39F0CEC064F0CFC065F0400E3E
:101B3800666F010E676F696B100E686F6AEF34F09D
:101B4800DC6F100E0001E06FDF6BDD0E646F656BFC
:101B5800676B666B696B010E686F9AEC39F0E00E83
:101B6800646F040E656F676B666B010E696F0F0E0D
:101B7800686F9AEC39F0AF0E646F010E656F676B92
:101B8800666B696B100E686F9AEC39F0DC0507E13B
:101B9800DD511F0B8009DD6F0201008104D0DD518A
:101BA8001F0B4009DD6FFC0E0001DD17E30EDD178A
:101BB800E00EE025D96EDA6A040EDA22DDC0DFFF16
:101BC800E02BE00EE025646F656B040E65231E0EA6
:101BD800666F020E676F696B040E686F6AEC34F00B
:101BE800040EE027DE6B020102AD30D00001DE8F6B
:101BF8000201DF51EB5D29E20001DE8D020100895F
:101C0800D04BD12BA251D019D11102E1EE6B1AD0D1
:101C1800A2510001DA6FDB6B0201D0510001DA5DDD
:101C28000201D1510001DB590EE20201EE2BEE5107
:101C3800A35D0CE2EE6B75EC2DF0000907E10201E3
:101C4800D06BD16B0001DE9D02010099020100A357
:101C580004D00001DE8B020100930001DE9902012D
:101C6800A75104E0010169516A1104E1F00E000175
:101C7800DE1707D0C6EC2CF0DA6FDE19F00BDA1994
:101C8800DE6FE00EE025D96EDA6A040EDA22DEC0D5
:101C9800DFFFE02BE00EE025646F656B040E652323
:101CA800060E666F020E676F696B020E686F6AEC4C
:101CB80034F0020EE0270201A7510FE0010169513B
:101CC8006A110BE0E00E0001646F040E656FE00E10
:101CD800666F010E676F23EC0FF0E00E0001E02540
:101CE800D96EDA6A040EDA2266C1DFFFE02B010141
:101CF80069516A1131E0E00E0001E025646F656BFF
:101D0800040E652367C166F068C167F069C168F0B1
:101D18006AC169F06AEC34F067C1A4F068C1A5F043
:101D280069C1A6F0A76B06C2A8F007C2A9F008C24D
:101D3800AAF009C2ABF0320EAC6F020EAD6FE0C074
:101D4800AEF0E00EAF6F040EB06FB16BC2EC20F0D6
:101D58000101695100012AD00201A75128E0EF0EC4
:101D68000001646F050E656FDF0E666F676B23EC0D
:101D78000FF0EF0EA46F050EA56FDFC0A6F0A76BDE
:101D880006C2A8F007C2A9F008C2AAF009C2ABF0BF
:101D9800220EAC6F020EAD6FE0C0AEF0E00EAF6F7A
:101DA800040EB06FB16BC2EC20F0DF51E02706C221
:101DB8006EF007C26FF008C270F009C271F000013E
:101DC800E051F00F726F490E736F000E746B15ECD3
:101DD8002CF0E00E646F040E656FAF0E666F010E97
:101DE800676F696B100E686F6AEC34F0220ECC6F67
:101DF800020ECD6FAF0ECE6F010ECF6FE00ED06F1B
:101E0800040ED16FE0C0D2F016EC0CF0E00EE02525
:101E1800646F656B040E6523AF0E666F010E676F06
:101E2800696B040E686F6AEC34F0040EE027F00E5C
:101E3800E0250201D46FD56BFF0ED523FF0C665148
:101E4800D96EDA6ADF506F6F6E6B66D1675101E148
:101E580048D16E51020DA80EF324D96E020EF4205B
:101E6800DA6EDE2801E13DD1FE0E686F69696E51B8
:101E7800020DA80EF324D96E020EF420DA6EDF509C
:101E88006A6F6B6B68516A2769516B23940E6A25D8
:101E9800F66E7F0E6B21F76E0800F5506FC06CF080
:101EA8006D6B6C27000E6D236651D96EDA6ADF50B0
:101EB8006C5F000E6D5B6DBF14D16D5105E1100EA6
:101EC8006C5D01E32FD10DD12DD16F516425D96EF1
:101ED800000E6521DA6E030EDF6E6F2B6F516425DD
:101EE800D96E000E6521DA6EDF6A6E51020DA90EF9
:101EF800F324D96E020EF420DA6EDFA009D00001B7
:101F08006F516425D96E000E6521DA6E000EDB80F4
:101F180000016E51020DA90EF324D96E020EF420B1
:101F2800DA6EDFA208D06F516425D96E000E6521E4
:101F3800DA6E000EDB8200016E51020DA90EF32449
:101F4800D96E020EF420DA6EDFA409D000016F51B9
:101F58006425D96E000E6521DA6E000EDB8400015F
:101F68006F2BD9D06F516425D96E000E6521DA6EBA
:101F7800050EDF6E6F2B6F516425D96E000E65213B
:101F8800DA6EDF6A6E51020DA90EF324D96E020EC5
:101F9800F420DA6EDFA609D000016F516425D96EEE
:101FA800000E6521DA6E000EDB8000016E51020D15
:101FB800A90EF324D96E020EF420DA6EDFA808D039
:101FC8006F516425D96E000E6521DA6E000EDB8232
:101FD80000016E51020DA90EF324D96E020EF420F1
:101FE800DA6EDFAABCD7B2D76F516425D96E000E5E
:101FF8006521DA6E060EDF6E6F2B6F516425D96E80
:10200800000E6521DA6EE0C2DFFF6F2B9FEC3CF01B
:10201800800AA00F05E39FEC3CF0800A600F09E3FB
:1020280000016F516425D96E000E6521DA6E200E0D
:102038000AD000016F516425D96E000E6521DA6E51
:102048009FEC3CF03F0BDF6E8AD76F516425D96E49
:10205800000E6521DA6E070EDF6E6F2B6F51642557
:10206800D96E000E6521DA6EDF6A6E51020DA90E77
:10207800F324D96E020EF420DA6EDFAE09D0000127
:102088006F516425D96E000E6521DA6E000EDB8073
:1020980000016E51020DA90EF324D96E020EF42030
:1020A800DA6EDFAC5CD76F516425D96E000E6521FE
:1020B800DA6E000EDB8253D70201DD69DE6B0001A8
:1020C8006E51020DA80EF324D96E020EF420DA6EBA
:1020D8006F516425E96E000E6521EA6EDFCFEFFFD0
:1020E8003ED76E51020DA80EF324D96E020EF420CD
:1020F800DA6EDF50020AE0E0010A01E1E6D6070ADB
:10210800DEE0010A01E12ED7030A01E16DD7010AD9
:102118009CE00F0AD4E06E2B0201A75100016E5D0E
:1021280001E294D66651D96EDA6A6FC0DFFF1200F9
:102138008F6B6C518F25D96EDA6A8F51750FE96EE6
:10214800EA6ADFCFEFFF8F2B0F0E8F65F2D70A0EEB
:10215800476E010E466E8F6B8F51750FD96EDA6A16
:10216800DF506D6F8F516A25D96E000E6B21DA6EC4
:102178006D51DF1A8F2B0F0E8F65EED78F6B8F5136
:102188006A25D96E000E6B21DA6EDF506D6F6E6BAB
:102198006D0E6D25F66E7E0E6E21F76E8F516A25D7
:1021A800D96E000E6B21DA6E0800F5CFDFFF8F2B9A
:1021B8000F0E8F65E4D76AC064F06BC065F0B6ECAB
:1021C8001EF0470401E111D18F6B8F516A256D6FA5
:1021D800000E6B216E6F6D29D96E000E6E21DA6EBE
:1021E800DF506F6F8F516A25D96E000E6B21DA6E42
:1021F800DF506F198D6F8F516A256D6F000E6B213F
:102208006E6F030E6D25D96E000E6E21DA6EDF50EB
:102218006F6F8F516A25706F000E6B21716F020E00
:102228007025D96E000E7121DA6EDF506F198E6F2E
:102238008D198B6F8F516A256D6F000E6B216E6F34
:102248006D29D96E000E6E21DA6EDF506F6F8F51D7
:102258006A25706F000E6B21716F020E7025D96EA2
:10226800000E7121DA6EDF506F198C6F7F0E8D654D
:102278000CD01B0E8DC06DF06E6BD8906D376E371D
:102288006D19856F6E51866F05D0D8908D35856F25
:10229800866B863785C08DF07F0E8C650CD01B0E43
:1022A8008CC06DF06E6BD8906D376E376D19876F77
:1022B8006E51886F05D0D8908C35876F886B8837BA
:1022C80087C08CF07F0E8E650CD01B0E8EC06DF013
:1022D8006E6BD8906D376E376D19896F6E518A6F36
:1022E80005D0D8908E35896F8A6B8A3789C08EF071
:1022F8008F516A25D96E000E6B21DA6E8F516A25CF
:10230800E96E000E6B21EA6EEF508B198D19DF6EA6
:102318008F516A256D6F000E6B216E6F6D29D96E16
:10232800000E6E21DA6E8F516A256F6F000E6B21D9
:10233800706F6F29E96E000E7021EA6EEF508B19ED
:102348008C19DF6E8F516A256D6F000E6B216E6FD1
:10235800020E6D25D96E000E6E21DA6E8F516A2538
:102368006F6F000E6B21706F020E6F25E96E000E05
:102378007021EA6EEF508B198E19DF6E8F516A2526
:102388006D6F000E6B216E6F030E6D25D96E000EFA
:102398006E21DA6E8F516A256F6F000E6B21706F98
:1023A800020E6F25E96E000E7021EA6EEF50716F14
:1023B8008F516A25726F000E6B21736F7229E96E57
:1023C800000E7321EA6EEF50746F8F516A25E96E23
:1023D800000E6B21EA6EEF50741971198B19DF6EBC
:1023E800040E8F270F0E8F65F0D6750E646FE4EC20
:1023F80014F08F6B8F51750FD96EDA6ADF506D6FDD
:102408008F516A25D96E000E6B21DA6E6D51DF1A75
:102418008F2B0F0E8F65EED74706475001E0AED6DB
:1024280012000A0EE126000EE22252685368546830
:102438005568FA0E52C0E3FFFB0E53C0E3FFFC0ED3
:1024480054C0E3FFFD0E55C0E3FFFF0EE36AFE0E26
:10245800E36AFE0EE3500E0D040EF324D96E040E4B
:10246800F420DA6EDE0401E0AAD0FE0EE3500E0D71
:10247800080EF324D96E040EF420DA6EDE50DE1056
:10248800DE10DE1001E19BD0FE0EE3500E0D080EAB
:10249800F324D96E040EF420DA6EDE500201C85D12
:1024A800DE50C959DE50CA59DE50CB592FE2FE0E14
:1024B800E3500E0D080EF324D96E040EF420DA6EE4
:1024C800DECF52F0DECF53F0DECF54F0DECF55F042
:1024D800C851525C4E6EC95153584F6ECA51545828
:1024E800506ECB515558516EFE0EE3500E0D080E2E
:1024F800F324D96E040EF420DA6E4EC0DEFF4FC00E
:10250800DEFF50C0DEFF51C0DEFF0DD0FE0EE350EF
:102518000E0D080EF324D96E040EF420DA6EDE6A6E
:10252800DE6ADE6ADD6AFE0EE3500E0D080EF32445
:10253800D96E040EF420DA6EFA0EE3CF4BF0DE50BB
:102548004B5CFB0EE3CF4BF0DE504B58FC0EE3CF59
:102558004BF0DE504B58FD0EE3CF4BF0DE504B589E
:102568002EE3FE0EE3500E0D080EF324D96E040E72
:10257800F420DA6EDE50DE10DE10DE1020E0FE0EF3
:10258800E3500E0D080EF324D96E040EF420DA6E13
:10259800DECF52F0DECF53F0DECF54F0DECF55F071
:1025A800FA0E52C0E3FFFB0E53C0E3FFFC0E54C00B
:1025B800E3FFFD0E55C0E3FFFF0EE36AE32AFE0EBC
:1025C800E32AE3CF4BF00F0E4B6443D7FF0EE3042F
:1025D80001E096D0E150FA0FD96EE250DA6EFF0EA4
:1025E800DA22DECFC8F2DECFC9F2DECFCAF2DECF02
:1025F800CBF2FD0EE3500DE1FA0EE328FB0EE3CF1C
:102608004BF0FF0E4B5AFC0EE3CF4BF00F0E4B5A1C
:1026180028E3E150FA0FD96EE250DA6EFF0EDA22A3
:10262800DECF64F0DECF65F0DECF66F0DECF67F098
:102638007D0E0001686F696B6A6B6B6BAAEC30F0FA
:1026480064C052F065C053F066C054F067C055F0DE
:102658000C0ED8905236533654365536E82EF9D7E4
:102668002CD0FA0EE3CF52F0FB0EE3CF53F0FC0E62
:10267800E3CF54F0FD0EE3CF55F00C0ED890523650
:10268800533654365536E82EF9D752C064F053C045
:1026980065F054C066F055C067F07D0E0001686FA4
:1026A800696B6A6B6B6BAAEC30F064C052F065C062
:1026B80053F066C054F067C055F0F60E52C0E3FF01
:1026C800F70E53C0E3FFF80E54C0E3FFF90E55C0F0
:1026D800E3FFE150F60FD96EE250DA6EFF0EDA2210
:1026E800DECF71F0DECF72F0DECF73F0DECF74F0A4
:1026F8000201E951E5EC36F00201E951AAEC2EF0AD
:10270800F50EE126FF0EE222FF0C0001A969AA6975
:10271800AB69AC69020103B13CD102510F0B030A4A
:102728000EE1125105E10251F00B0409026F12008B
:10273800020E1219D8A41200E66A9DEF2AF000B51D
:1027480070EF39F002A9120000A14FD0D951D75D1E
:1027580034E30251F00B0609026FA0510001A56F86
:102768000201A1510001A66FA76BA86B0C0ED890AF
:10277800A537A637A737A837E82EF9D7A5C064F03C
:10278800A6C065F0A7C066F0A8C067F07D0E686FA8
:10279800696B6A6B6B6BAAEC30F064C071F065C052
:1027A80072F066C073F067C074F00201E851E5EC9E
:1027B80036F00201E851AAEF2EF015EC3CF00101C9
:1027C80072517311D8B41200000E0001646F656F66
:1027D800666F676F05000101FA6E7251FD6E7351E5
:1027E800FE6EF850FF6EFA501200D851D65D01E225
:1027F800B7D00251F00B0609026F010E57EC33F007
:10280800000919E1F00E946F040E956FD4C296F08A
:10281800FAEC17F09451951107E10201D82B0251F7
:10282800F00B0109026F12000EEC3CF0010172512D
:102838007311CAE11200AD6B5BD00001AD510E0DF2
:10284800040EF324D96E040EF420DA6EDE044EE191
:10285800AD510E0D080EF324D96E040EF420DA6E75
:10286800DE50DE10DE10DE1041E0AD510E0D080E18
:10287800F324D96E040EF420DA6EDE50A95DDE5022
:10288800AA59DE50AB59DE50AC5930E3AD510E0DAC
:10289800050EF324D96E040EF420DA6EDF500F0B08
:1028A800A56FA5510201DF5D21E30001AD510E0DB9
:1028B800050EF324D96E040EF420DA6EDF380F0B00
:1028C800A56F0201DF510001A55D10E3AD510E0DAA
:1028D800080EF324D96E040EF420DA6EDECFA9F0C8
:1028E800DECFAAF0DECFABF0DECFACF00001AD2B2F
:1028F800AD510201ED5DA1E2A9C0A5F0AAC0A6F004
:10290800ABC0A7F0ACC0A8F00C0ED8900001A5375A
:10291800A637A737A837E82EF8D7000EA525646F85
:10292800200EA621656F030EA721666F000EA82151
:10293800676F7D0E686F696B6A6B6B6BAAEC30F022
:1029480064C071F065C072F066C073F067C074F05F
:102958000201EA51E5EC36F00201EA51AAEF2EF045
:102968000EEC3CF0010172517311D8B41200000E44
:102978000001646F656F666F010E676F05000101E6
:10298800FA6E7251FD6E7351FE6EF850FF6EFA507A
:102998001200010172517311D8B41200000E000127
:1029A800646F656F666F020E676F05000101FA6E4E
:1029B8007251FD6E7351FE6EF850FF6EFA501200A0
:1029C8006451D96EDA6A0D0ED926DF50656F666BD1
:1029D8006D0E6525F66E7E0E6621F76E0800F5CF42
:1029E80067F06451D96EDA6A6751DF1A6451D96E9B
:1029F800DA6A0E0ED926DF50656F666B6D0E652597
:102A0800F66E7E0E6621F76E0800F5CF67F064510A
:102A1800D96EDA6AD92A6751DF1A6451D96EDA6A2F
:102A28000F0ED926DF50656F666B6D0E6525F66E45
:102A38007E0E6621F76E0800F5CF67F06451D96EF7
:102A4800DA6A020ED9266751DF1A6451D96EDA6A3A
:102A58000C0ED926DF50656F666B6D0E6525F66E18
:102A68007E0E6621F76E0800F5CF67F06451D96EC7
:102A7800DA6A030ED9266751DF1A6451D96EDA6A09
:102A88004650DF1A7F0E46640CD01B0E46C065F018
:102A9800666BD890653766376519686F6651696FD8
:102AA80005D0D8904634686F696B693768C046F0BE
:102AB8006451D96EDA6ADF50656F6451D96EDA6A8B
:102AC800040ED9266551DF1A6451D96EDA6AD92AFB
:102AD800DF50656F6451D96EDA6A050ED9266551E3
:102AE800DF1A6451D96EDA6A020ED926DF50656F93
:102AF8006451D96EDA6A060ED9266551DF1A645117
:102B0800D96EDA6A030ED926DF50656F6451D96E23
:102B1800DA6A070ED9266551DF1A6451D96EDA6A66
:102B2800040ED926DF50656F6451D96EDA6A080E33
:102B3800D9266551DF1A6451D96EDA6A050ED9268D
:102B4800DF50656F6451D96EDA6A090ED92665516E
:102B5800DF1A6451D96EDA6A060ED926DF50656F1E
:102B68006451D96EDA6A0A0ED9266551DF1A6451A2
:102B7800D96EDA6A070ED926DF50656F6451D96EAF
:102B8800DA6A0B0ED9266551DF1A6451D96EDA6AF2
:102B9800080ED926DF50656F6451D96EDA6A0C0EBB
:102BA800D9266551DF1A6451D96EDA6A090ED92619
:102BB800DF50656F6451D96EDA6A0D0ED9266551FA
:102BC800DF1A6451D96EDA6A0A0ED926DF50656FAA
:102BD8006451D96EDA6A0E0ED9266551DF1A64512E
:102BE800D96EDA6A0B0ED926DF50656F6451D96E3B
:102BF800DA6A0F0ED9266551DF1A120001019CA569
:102C080006D0800E0001956F030E946F030C9CC1D3
:102C180096F0030E0001961705E0800E956F040EDE
:102C2800946F040C9451951107E1000E7E6F040E09
:102C38007D6FDAEC09F006D094C07DF095C07EF087
:102C4800DAEC09F00101910511E1010E0001666F4E
:102C5800220ED4EC3AF00001666B400ED4EC3AF048
:102C68000001666B410ED4EC3AF014D0ADC166F0A9
:102C7800120ED4EC3AF0AEC166F0130ED4EC3AF072
:102C88000001666B400ED4EC3AF00001666B410E11
:102C9800D4EC3AF001019C83E70E9C170001945193
:102CA800951108E191C169F0000E6A6F050EFEECFE
:102CB80028F041D00101910509E1010E0001696F79
:102CC800000E6A6F060EFEEC28F035D0000E0001EB
:102CD800696F6A6F050EFEEC28F000019451966F3B
:102CE8009551976F986B996B0C0ED89096379737CC
:102CF80098379937E82EF9D796C064F097C065F0F1
:102D080098C066F099C067F07D0E686F696B6A6B52
:102D18006B6BAAEC30F064C071F065C072F066C0ED
:102D280073F067C074F00101A151E5EC36F00101C0
:102D3800A151AAEC2EF00101A351A411A511A611CD
:102D480059E0A65106E1A329FF0EA4590F0EA55973
:102D580019E3A3C164F0A4C165F0A5C166F0A6C1DA
:102D680067F07D0E0001686F696B6A6B6B6BAAEC8C
:102D780030F00C0ED8906437653766376737E82E21
:102D8800F9D720D0A3C196F0A4C197F0A5C198F0B7
:102D9800A6C199F00C0ED89000019637973798374E
:102DA8009937E82EF8D796C064F097C065F098C0B8
:102DB80066F099C067F07D0E686F696B6A6B6B6B24
:102DC800AAEC30F064C09AF065C09BF066C09CF035
:102DD80067C09DF09AC071F09BC072F09CC073F000
:102DE8009DC074F00101A251E5EC36F00101A25139
:102DF800AAEC2EF00001946B956B12007F6B7AC0E1
:102E080080F07BC081F0DED00201A751020DA90E2F
:102E1800F324D96E020EF420DA6EDF90A751020D6A
:102E2800A90EF324D96E020EF420DA6EDF92A751B0
:102E3800020DA90EF324D96E020EF420DA6EDF9487
:102E4800A751020DA90EF324D96E020EF420DA6EF2
:102E5800DF96A751020DA90EF324D96E020EF420B5
:102E6800DA6EDF98A751020DA90EF324D96E020E6F
:102E7800F420DA6EDF9AA751020DA90EF324D96E59
:102E8800020EF420DA6EDF9CA751020DA90EF3247E
:102E9800D96E020EF420DA6EDF9E80C0D9FF81C0A1
:102EA800DAFFA751020DA80EF324E96E020EF420F2
:102EB800EA6EDFCFEFFF60D080C064F081C065F0BC
:102EC800B8EC38F064C080F065C081F00201A75109
:102ED800020DA80EF324D96E020EF420DA6EDF6814
:102EE80062D080C071F081C072F0B6EC1AF071C087
:102EF80080F072C081F057D080C064F081C065F066
:102F080010EC35F064C080F065C081F04CD080C012
:102F180070F081C071F06CEC21F070C080F071C06D
:102F280081F041D080C064F081C065F04FEC3CF086
:102F380064C080F065C081F036D080C070F081C078
:102F480071F0D5EC19F070C080F071C081F02BD011
:102F580080C069F081C06AF010EC3AF069C080F076
:102F68006AC081F020D0010E7F6F7C517A25806F76
:102F7800000E7B21816FAAD780C0D9FF81C0DAFFFC
:102F88000001804B812BDF50020A96E0010AA9E07C
:102F9800070AB2E0010ABBE0030AC4E0010ACDE077
:102FA8000F0AD6E0E0D70201A751020DA80EF324BC
:102FB800D96E020EF420DA6EDE2804E0100EA76146
:102FC80001D0A72B00017C517A257D6F000E7B2153
:102FD8007E6F7D51805D7E51815903E27F5101E111
:102FE80013D780C07AF081C07BF0120001019CA544
:102FF80006D0800E0001956F030E946F030C9CC1E0
:1030080097F0030E0001971705E0800E956F040EE8
:10301800946F040C0101915109E1400E000196657D
:1030280005D0800E956F020E946F020C0101A0511D
:103038002DEC3BF0000E7E6F040E7D6FDAEC09F08C
:103048000101910523E196C066F0220ED4EC3AF016
:103058000A0EEAEC39F0A36FF00EA317A387A3C0FA
:1030680066F00A0ED4EC3AF0400E0001666FD4EC1C
:103078003AF00001666B410ED4EC3AF091C169F068
:10308800010E00016A6FFEEC28F00AD00001666BA1
:10309800400ED4EC3AF00001666B410ED4EC3AF0E5
:1030A8000101915105E196C066F0000ED4EC3AF0AA
:1030B800BAEC3CF0800E68EC3CF00001A46B0BD03D
:1030C800A4519425D96E000E9521DA6EDF5068EC74
:1030D8003CF00001A42B9651A45DF2E3B8EC3CF05F
:1030E80001019C81E70E9C1791C169F0000E000157
:1030F8006A6F030EFEEC28F00001716B726B0A0E0A
:10310800736F746B0101A051E5EC36F00101A05119
:10311800AAEC2EF00101A351A411A511A61159E0A2
:10312800A65106E1A329FF0EA4590F0EA55919E3CC
:10313800A3C164F0A4C165F0A5C166F0A6C167F09B
:103148007D0E0001686F696B6A6B6B6BAAEC30F0DF
:103158000C0ED8906437653766376737E82EF9D78D
:1031680020D0A3C197F0A4C198F0A5C199F0A6C139
:103178009AF00C0ED89000019737983799379A37FC
:10318800E82EF8D797C064F098C065F099C066F04B
:103198009AC067F07D0E686F696B6A6B6B6BAAECFF
:1031A80030F064C09FF065C0A0F066C0A1F067C0B1
:1031B800A2F09FC071F0A0C072F0A1C073F0A2C0CD
:1031C80074F00101A251E5EC36F00101A251AAEC1C
:1031D8002EF00001946B956B12000001746F210EA4
:1031E8007419D8A41200030E796F7A6B756B766B1D
:1031F800776B786B750E646F656B7A51030D70C0D1
:1032080072F071C073F0F3507227F45073230D0EEF
:103218007227000E73237251666F676B696B030E1A
:10322800686F6AEC34F075C064F076C065F077C0FA
:1032380066F078C067F0640E686F696B6A6B6B6BD9
:10324800EEEC2EF064C075F065C076F066C077F0DD
:1032580067C078F0755176117711781101E194D033
:1032680075C064F076C065F077C066F078C067F026
:10327800E5EC33F0000901E08CD07A510E0D000E18
:10328800726F040E736FF3507227F45073237951E1
:103298000E0DF3507225D96EF4507321DA6E75C095
:1032A800DEFF76C0DEFF77C0DEFF78C0DEFF7A5132
:1032B8000E0D000E726F040E736F050E7227000E4E
:1032C8007323F3507227F450732379510E0DF35082
:1032D8007225D96EF4507321DA6EDF500F0B500946
:1032E800DF6E00017A510E0D000E726F040E736FBF
:1032F800050E7227000E7323F3507227F4507323C0
:1033080079510E0DF3507225D96EF4507321DA6E8F
:10331800F00EDF167A510E0D000E726F040E736FE9
:10332800060E7227000E7323F3507227F45073238E
:1033380079510E0DF3507225D96EF4507321DA6E5F
:10334800E70EDE6E030EDD6E7A510E0D000E726F03
:10335800040E736F0D0E7227000E7323F35072273D
:10336800F450732379510E0DF3507225D96EF45031
:103378007321DA6EDF68010E686F7A51792518ECCF
:1033880038F00201038705D0686B7A51792518EC6B
:1033980038F000017A2B040E7A6528D702010387DA
:1033A800040C70C0D9FF71C0DAFFDF50776F704B23
:1033B800712B70C0D9FF71C0DAFFFF0EDE14736F76
:1033C800FF0EDE14746FFF0EDE14756F000EDE1430
:1033D800766F73C064F074C065F075C066F076C02F
:1033E80067F0640E686F696B6A6B6B6BEEEC2EF0BE
:1033F80064C073F065C074F066C075F067C076F09D
:10340800030E7027000E712370C0D9FF71C0DAFF58
:10341800DF50726F704B712B646B7751B6EC3AF0DA
:1034280000092BE173C064F074C065F075C066F0E4
:1034380076C067F0E5EC33F0000905E073517411CC
:10344800751176110AE10201A751020DA90EF324A4
:10345800D96E020EF420DA6EDF8E000172516BEC29
:1034680038F000090AE10201A751020DA90EF32460
:10347800D96E020EF420DA6EDF8C0201A751020D1C
:10348800A90EF324D96E020EF420DA6EDFAE65D0F1
:10349800A751020DA90EF324D96E020EF420DA6E9C
:1034A800DFAC5BD0100EDA6129D0000173517411C2
:1034B800751176111EE073C064F074C065F075C0B4
:1034C80066F076C067F07751FBEC37F072C064F0B5
:1034D80077515BEC25F0010E0001656F2E0E646FCD
:1034E80077519FEC38F0010E646F7751D9EC23F0D7
:1034F80032D0686B775118EC38F02DD00001735139
:1035080074117511761122E073C064F074C065F00F
:1035180075C066F076C067F07751100FFBEC37F096
:1035280072C064F07751100F5BEC25F0010E0001BA
:10353800656F2E0E646F7751100F9FEC38F0010EF7
:10354800646F7751100FD9EC23F005D0686B775171
:10355800100F18EC38F00201038770C070F071C0CA
:1035680071F0120071C0D9FF72C0DAFFDF500F0B83
:10357800766F71C0D9FF72C0DAFFDF50736F73398D
:103588000F0B796F714B722B71C0D9FF72C0DAFFC4
:10359800DECF74F0DDCF75F0020E7127000E7223B6
:1035A80071C077F072C078F0714B722B020102ADD6
:1035B80092D077C0D9FF78C0DAFF0001DF38070B57
:1035C800A1EC3BF0000912E174C064F075C065F02D
:1035D80034EC38F000090AE10201A751020DA90EE6
:1035E800F324D96E020EF420DA6EDF8000017951DF
:1035F800CDEC3BF0000912E10201EB510001795DCD
:103608000DE379510201EC5D09E3A751020DA90E02
:10361800F324D96E020EF420DA6EDF8200017651AF
:1036280045EC3AF000090AE10201A751020DA90E82
:10363800F324D96E020EF420DA6EDF840201A7515A
:10364800020DA90EF324D96E020EF420DA6EDFA45F
:103658005DD0A751020DA90EF324D96E020EF420F5
:10366800DA6EDFA253D0A751020DA90EF324D96E4A
:10367800020EF420DA6EDFA049D074C06EF075C077
:103688006FF077C0D9FF78C0DAFF0001DF38070B89
:10369800706FB8EC3BF0765171EC3CF00201038995
:1036A8000001795175EC3CF077C0D9FF78C0DAFF9A
:1036B8000001DF500F0B03E10201D66B0AD077C07F
:1036C800D9FF78C0DAFFDF500F0B736F7305020163
:1036D800D66F038B1BD0A751020DA90EF324D96E08
:1036E800020EF420DA6EDF90A751020DA90EF32422
:1036F800D96E020EF420DA6EDF92A751020DA90EE0
:10370800F324D96E020EF420DA6EDF9471C071F0E2
:1037180072C072F012009451966F9551976F986B22
:10372800996BE80E9603F3CF9AF0F4CF9BF09C6B5D
:103738009D6B9703F3509B27F4509C23000E9D2309
:10374800030E9603F3509B27F4509C23000E9D23F1
:10375800E80E9803F3509C27F4509D23030E97031B
:10376800F3509C27F4509D23000E9603F3509C279A
:10377800F4509D23E80E9903F3509D27030E9803F8
:10378800F3509D27000E9703F3509D27000E9603D4
:10379800F3509D279AC0CCF29BC0CDF29CC0CEF2CC
:1037A8009DC0CFF29451951127E10201E7512DEC0C
:1037B8003BF0020103950001A26B18D0A251020D43
:1037C800A80EF324D96E020EF420DA6E020EDE186B
:1037D8000BE1A251020DA80EF324D96E020EF420BB
:1037E800DA6EDF680201A7070001A22B0201A751C8
:1037F8000001A25DE3E312000201038502A91200A1
:10380800CF5106E1CC29FF0ECD590F0ECE5919E341
:10381800CCC264F0CDC265F0CEC266F0CFC267F00C
:103828007D0E0001686F696B6A6B6B6BAAEC30F0F8
:103838000C0ED8906437653766376737E82EF9D7A6
:1038480020D0CCC296F0CDC297F0CEC298F0CFC2AD
:1038580099F00C0ED890000196379737983799371A
:10386800E82EF8D796C064F097C065F098C066F067
:1038780099C067F07D0E686F696B6A6B6B6BAAEC19
:1038880030F064C09EF065C09FF066C0A0F067C0CD
:10389800A1F09EC071F09FC072F0A0C073F0A1C0EB
:1038A80074F00201E751E5EC36F00201E751AAEFA6
:1038B8002EF07FC079F180C07AF181C07BF182C09F
:1038C8007CF1A80E01017D6F610E7E6F7F6B806BAE
:1038D800500E816FC30E826F836B846B010E916FE4
:1038E800070E936F010E946F9A6F9B6B866B080E91
:1038F800856F0C0E926F010E956F966B996BC10ECA
:10390800886F940E896FC10E8A6F030E906F340E04
:10391800876F9C6B9D6B7DC09EF17EC09FF1976BFE
:10392800986B800EAB6F980EA36F3A0EA46FA56BC1
:10393800A66B020EAC6F0B0EAD6F120EAE6FA86BBE
:10394800A96BA75123E11EEC31F00101A06F1EEC19
:1039580031F00101A16F1EEC31F00101A26FA00E40
:103968000001646F700E656F666B0101A151D1ECA7
:1039780038F0040E646F6D0E656F666B0101A2511D
:10398800D1EC38F0010E0101A76F0BD0A0512DEC3E
:103998003BF00101A1512DEC3BF00101A2512DECAE
:1039A8003BF085EC38F0000E0001696F010E6A6F7C
:1039B800FEEC28F079C171F07AC172F07BC173F026
:1039C8007CC174F090EC28F0420E0001666F3B0E4B
:1039D800D4EC3AF03B0EEAEC39F0836F83BBFAD7AC
:1039E800230E666F0C0ED4EC3AF01E0E0001666FC3
:1039F8000D0ED4EC3AF0AA0E0001666F1F0ED4EC3F
:103A08003AF08F0E0001666F350ED4EC3AF00001E3
:103A18006669320ED4EC3AF0400E0001666F310E42
:103A2800D4EC3AF0010E0001696F6A6F000EFEECEB
:103A380028F000016669230ED4EC3AF0420EEAEC55
:103A480039F00101AA6F12003F0EEAEC39F0DC6F81
:103A5800DCA7120091C169F0000E6A6FFEEC28F035
:103A680001019C91A2512DEC3BF001019CB912007F
:103A7800A05126EC37F08E5107E11F0E8B5DAC0E7E
:103A88008C59DF0E8D5946E30101A05126EC37F021
:103A98000D0E05D0D8908E338D338C338B33E82EB2
:103AA800F9D77D0E8B03F3CFD0F0F4CFD1F0D26BE2
:103AB800D36B8C03F350D127F450D223000ED323B9
:103AC8008B03F350D127F450D223000ED3237D0E5D
:103AD8008D03F350D227F450D323000E8C03F350F8
:103AE800D227F450D323000E8B03F350D227F4507F
:103AF800D3237D0E8E03F350D327000E8D03F3508E
:103B0800D327000E8C03F350D327000E8B03F350FA
:103B1800D32745D00101A05126EC37F07D0E8B0349
:103B2800F3CFD0F0F4CFD1F0D26BD36B8C03F3503A
:103B3800D127F450D223000ED3238B03F350D1277F
:103B4800F450D223000ED3237D0E8D03F350D227D9
:103B5800F450D323000E8C03F350D227F450D32310
:103B6800000E8B03F350D227F450D3237D0E8E031F
:103B7800F350D327000E8D03F350D327000E8C0388
:103B8800F350D327000E8B03F350D3270D0E05D027
:103B9800D890D333D233D133D033E82EF9D7D0C02D
:103BA800D8F0D1C0D9F0D2C0DAF0D3C0DBF0D85108
:103BB8002008D46F4E0ED955D56F000EDA55D66F42
:103BC800000EDB55D76F0101A0512DEC3BF0D4C09E
:103BD8009EF0D5C09FF09AEF05F00101A2512DEC9F
:103BE8003BF0080E666F120ED4EC3AF091C169F002
:103BF800000E00016A6FFEEC28F001019C919CB94F
:103C08001200A05126EC37F08E5107E11F0E8B5D94
:103C1800AC0E8C59DF0E8D5946E30101A05126ECFC
:103C280037F00D0E05D0D8908E338D338C338B330F
:103C3800E82EF9D77D0E8B03F3CFD0F0F4CFD1F077
:103C4800D26BD36B8C03F350D127F450D223000EE0
:103C5800D3238B03F350D127F450D223000ED32360
:103C68007D0E8D03F350D227F450D323000E8C031E
:103C7800F350D227F450D323000E8B03F350D227EE
:103C8800F450D3237D0E8E03F350D327000E8D03FB
:103C9800F350D327000E8C03F350D327000E8B0369
:103CA800F350D32745D00101A05126EC37F07D0E03
:103CB8008B03F3CFD0F0F4CFD1F0D26BD36B8C035E
:103CC800F350D127F450D223000ED3238B03F350A3
:103CD800D127F450D223000ED3237D0E8D03F35049
:103CE800D227F450D323000E8C03F350D227F4507C
:103CF800D323000E8B03F350D227F450D3237D0E29
:103D08008E03F350D327000E8D03F350D327000EF4
:103D18008C03F350D327000E8B03F350D3270D0EDB
:103D280005D0D890D333D233D133D033E82EF9D756
:103D3800D0C0D8F0D1C0D9F0D2C0DAF0D3C0DBF00F
:103D4800D8512008D46F4E0ED955D56F000EDA55CC
:103D5800D66F000EDB55D76FD4C09EF0D5C09FF04C
:103D68009AEF05F020EE01F06451D9266551DA2268
:103D7800DF50666F20EE05F06451D9266551DA22CE
:103D880000EE01F06451E9266551EA22DFCFEFFF2A
:103D980020EE09F06451D9266551DA2200EE05F0CB
:103DA8006451E9266551EA22DFCFEFFF20EE0DF0DE
:103DB8006451D9266551DA2200EE09F06451E926EA
:103DC8006551EA22DFCFEFFF20EE0DF06451D926CE
:103DD8006551DA2266C0DFFF20EE02F06451D92671
:103DE8006551DA22DF50666F20EE0AF06451D92659
:103DF8006551DA2200EE02F06451E9266551EA22A3
:103E0800DFCFEFFF20EE0AF06451D9266551DA22A0
:103E180066C0DFFF20EE0EF06451D9266551DA2224
:103E2800DF50666F20EE06F06451D9266551DA221C
:103E380000EE0EF06451E9266551EA22DFCFEFFF6C
:103E480020EE06F06451D9266551DA2266C0DFFFFC
:103E580020EE03F06451D9266551DA22DF50666FEF
:103E680020EE0FF06451D9266551DA2200EE03F0F6
:103E78006451E9266551EA22DFCFEFFF20EE0BF00F
:103E88006451D9266551DA2200EE0FF06451E92613
:103E98006551EA22DFCFEFFF20EE07F06451D92603
:103EA8006551DA2200EE0BF06451E9266551EA22E9
:103EB800DFCFEFFF20EE07F06451D9266551DA22F3
:103EC80066C0DFFF12000001A36F0201F00502E1E6
:103ED8005EEC35F0340E0201F46FF45163EC3CF003
:103EE8000201026B036B046B056BDD69DE6BC86B4B
:103EF800C96BCA6BCB6BD46BD56B0A6B0B6B0C6B3A
:103F08000D6B066B076B086B096BD26BD36BDC6BA5
:103F1800010EDB6FD06BD16BEE6BEF6BC86BC96BAF
:103F2800CA6BCB6B0395026B036B046B056B006B61
:103F3800016B070ED76FD66B010ED96FD86FE0698A
:103F4800A3C0A4F2126B100EED6F0001A3511AE189
:103F5800FF0E7D6F050E7E6FA00E7F6F270E806FA0
:103F6800BE0E816F330E826F5DEC1CF02BEC32F0CD
:103F780002011C6B080E186FE60E196FD30E1A6F2C
:103F8800330E19D0FF0E7D6F050E7E6F200E7F6FEA
:103F9800A20E806FD30E816F190E826F5DEC1CF03C
:103FA8005EEC32F002011C6B280E186F760E196F4A
:103FB800E80E1A6F190E1B6F010EE16FDF6BBBEC79
:103FC8002BF00201A56BA66B1D0E0001646F020E9B
:103FD800656F676B666B696B690E686F9AEC39F091
:103FE800030E0201956FE80E946F070E976FD00EBF
:103FF800966F130E996F880E986F170E9B6F700E41
:104008009A6F070EA16FD00EA06F200EA36F400EFF
:10401800A26F9D6F9C6B9F6F9E6B0001956B946B5D
:104028008FEF1BF0050EE126000EE222020103A12C
:1040380003A529D0FF0EE36A0ED0FF0EE350020D50
:10404800A80EF324D96E020EF420DA6E020EDE18E2
:1040580008E0FF0EE32AFF0EE3CF4BF0A7514B5CBD
:10406800ECE3FF0EE350A7190EE1A751020DA80ECD
:10407800F324D96E020EF420DA6E020EDF6E100EF3
:10408800A76101D0A72B03A574D0CF5106E1CC2995
:10409800FF0ECD590F0ECE5921E3CCC264F0CDC22C
:1040A80065F0CEC266F0CFC267F07D0E0001686F82
:1040B800696B6A6B6B6BAAEC30F064C052F065C038
:1040C80053F066C054F067C055F00C0ED8905236C5
:1040D800533654365536E82EF9D728D0CCC252F08C
:1040E800CDC253F0CEC254F0CFC255F00C0ED890CA
:1040F8005236533654365536E82EF9D752C064F046
:1041080053C065F054C066F055C067F07D0E0001DD
:10411800686F696B6A6B6B6BAAEC30F064C052F025
:1041280065C053F066C054F067C055F0FB0E52C02E
:10413800E3FFFC0E53C0E3FFFD0E54C0E3FFFE0E89
:1041480055C0E3FFE150FB0FD96EE250DA6EFF0E67
:10415800DA22DECF71F0DECF72F0DECF73F0DECF81
:1041680074F00201E751E5EC36F00201E751AAECE0
:104178002EF0FA0EE126FF0EE222FF0CB86BB96BA7
:10418800A6390F0BB76F010EB86F51D0A8C06EF0EB
:10419800A9C06FF0AAC070F0ABC071F0B8C072F0DF
:1041A800010E736FB1C074F0A75115EC2CF0AF0E6F
:1041B800906F010E916FACC092F0ADC093F0C3EC5C
:1041C80039F0B96BAE51AF25D96E000EB021DA6E59
:1041D800B851B26FB36BB23BB33BF00EB317B251E9
:1041E8000F0BB313F00EB217A4C0B4F0A5C0B5F00E
:1041F800B251B427B351B523B951B427000EB52332
:10420800F00EB425E96EFF0EB521EA6EEF50B66FD9
:10421800AF0EB925E96EEA6A010EEA22EF50B61927
:10422800DF6EAE2BB92B0F0EB965CCD7B82BB851B2
:10423800B75DACE2A6C0B2F00F0EB217D8B40F0C3F
:10424800A8C06EF0A9C06FF0AAC070F0ABC071F042
:10425800B8C072F0010E736FB1C074F0A75115ECBD
:104268002CF0AF0E906F010E916FACC092F0ADC004
:1042780093F0C3EC39F0B96B23D0AE51AF25D96EAA
:10428800000EB021DA6EB751100DA4C0B2F0A5C06F
:10429800B3F0F350B227F450B323B951B225E96E05
:1042A800000EB321EA6EEF50B46FAF0EB925E96E78
:1042B800EA6A010EEA22EF50B419DF6EAE2BB92B71
:1042C800A6C0B2F00F0EB217B251B95DD6E3120014
:1042D80070C0D9FF71C0DAFFDF50766F704B712B59
:1042E80070C0D9FF71C0DAFFFF0EDE14726FFF0EC7
:1042F800DE14736FFF0EDE14746F000EDE14756F1C
:1043080072C064F073C065F074C066F075C067F081
:10431800640E686F696B6A6B6B6BEEEC2EF064C0B1
:1043280072F065C073F066C074F067C075F0030E74
:104338007027000E712372C064F073C065F074C0FA
:1043480066F075C067F0E5EC33F000090AE1020198
:10435800A751020DA90EF324D96E020EF420DA6ECD
:10436800DF86000176510F0BCDEC3BF000090AE126
:104378000201A751020DA90EF324D96E020EF420F2
:10438800DA6EDF8800017639070BC3EC3BF00009D1
:104398000AE10201A751020DA90EF324D96E020EFB
:1043A800F420DA6EDF8A0201A751020DA90EF32468
:1043B800D96E020EF420DA6EDFA829D0A751020DBB
:1043C800A90EF324D96E020EF420DA6EDFA61FD0F0
:1043D800A751020DA90EF324D96E020EF420DA6E4D
:1043E800DFAA15D000017639070B0201EF6F72C002
:1043F80064F073C065F074C066F075C067F00001C2
:1044080076510F0B686FADEC3BF00201038F70C063
:1044180070F071C071F012000001986999699A6989
:104428009B699C6B5BD000019C510E0D040EF3241C
:10443800D96E040EF420DA6EDE044EE19C510E0DA6
:10444800080EF324D96E040EF420DA6EDE50DE1066
:10445800DE10DE1041E09C510E0D080EF324D96EDB
:10446800040EF420DA6EDE50985DDE509959DE5065
:104478009A59DE509B5930E39C510E0D050EF324DA
:10448800D96E040EF420DA6EDF500F0B946F94513E
:104498000201DF5D21E300019C510E0D050EF3249E
:1044A800D96E040EF420DA6EDF380F0B946F020118
:1044B800DF510001945D10E39C510E0D080EF324AA
:1044C800D96E040EF420DA6EDECF98F0DECF99F0C4
:1044D800DECF9AF0DECF9BF000019C2B9C510201AD
:1044E800ED5DA1E20251F00B0609026F98C094F04D
:1044F80099C095F09AC096F09BC097F00C0ED89092
:1045080000019437953796379737E82EF8D794C037
:1045180064F095C065F096C066F097C067F07D0EB0
:10452800686F696B6A6B6B6BAAEC30F064C071F0F2
:1045380065C072F066C073F067C074F00201E6519E
:10454800E5EC36F00201E651AAEF2EF0E652E6520B
:10455800E652E652020100950289F00E0217D06B6E
:10456800D16BEE6B03A574D0CF5106E1CC29FF0EB9
:10457800CD590F0ECE5921E3CCC264F0CDC265F0FF
:10458800CEC266F0CFC267F07D0E0001686F696B1E
:104598006A6B6B6BAAEC30F064C052F065C053F0E4
:1045A80066C054F067C055F00C0ED890523653369A
:1045B80054365536E82EF9D728D0CCC252F0CDC2A1
:1045C80053F0CEC254F0CFC255F00C0ED8905236EC
:1045D800533654365536E82EF9D752C064F053C0D6
:1045E80065F054C066F055C067F07D0E0001686F35
:1045F800696B6A6B6B6BAAEC30F064C052F065C0F3
:1046080053F066C054F067C055F0FC0E52C0E3FF8B
:10461800FD0E53C0E3FFFE0E54C0E3FFFF0E55C06E
:10462800E3FFE150FC0FD96EE250DA6EFF0EDA229A
:10463800DECF71F0DECF72F0DECF73F0DECF74F034
:104648000201E751E5EC36F00201E751AAEC2EF041
:104658000101745175110EE021EE74F001D80AD0F1
:104668000500FA6EDE50FD6EDE50FE6EF850FF6EED
:10467800FA50010CFB0EE126FF0EE222FF0C0001AE
:10468800EA6BE00E646F040E656F676B666B010E74
:10469800696F0F0E686F9AEC39F01F0EE917FC0E60
:1046A800E917E30EE91724EEE0F0E9C0DFFFEA2B93
:1046B800EB6BEB515908D96E000ED8A0E82A020816
:1046C800DA6EE00EE36F040EE46FEA51E327000EA2
:1046D800E423EB51E325E96E000EE421EA6EDFCF17
:1046E800EFFFEB2B070EEB65E4D7080EEA27EB6B21
:1046F800EB516108D96E000ED8A0E82A0208DA6EDC
:10470800E00EE36F040EE46FEA51E327000EE423A2
:10471800EB51E325E96E000EE421EA6EDFCFEFFFEF
:10472800EB2B070EEB65E4D7080EEA277869776963
:1047380056EC3AF077C0D2F278C0D3F2E00EEA2510
:10474800646F656B040E6523D20E666F020E676F89
:10475800696B020E686F6AEC34F0020EEA27420EAB
:10476800DA6F020EDB6FE00EDC6F040EDD6FEAC05D
:10477800DEF0BEEC34F0DAC0E5F0DBC0E6F0DCC019
:10478800E7F0DDC0E8F0E00EEA25646F656B040E23
:104798006523E50E666F676B696B040E686F6AECDC
:1047A80034F0040EEA27EA511200666F00016651E0
:1047B8000E0D040EF324D96E040EF420DA6E64C0D4
:1047C800DFFF66510E0D040EF324D96E040EF4209B
:1047D800DA6EDF500CE166510E0D080EF324D96E27
:1047E800040EF420DA6EDE6ADE6ADE6ADD6A676B62
:1047F8004ED067510E0D050EF324D96E040EF42029
:10480800DA6EDF500F0B0001656F0201EB510001FA
:10481800655D16E267510E0D040EF324D96E040E81
:10482800F420DA6EDE040CE167510E0D050EF32458
:10483800D96E040EF420DA6EDF500F0B0201EB6F15
:10484800000167510E0D050EF324D96E040EF420F5
:10485800DA6EDF380F0B0201EC6117D000016751E7
:104868000E0D040EF324D96E040EF420DA6EDE0465
:104878000CE167510E0D050EF324D96E040EF420D9
:10488800DA6EDF380F0B0201EC6F0001672B0201B3
:10489800ED510001675DADE30201DF51EC5D02E21D
:1048A800ECC2DFF2EB51DF5DD8A0EBC2DFF2120001
:1048B80021EEC1F000EEABF00F0EDBCFEBFFE80608
:1048C800FCE2BB0E646F656B676B666B696B100E01
:1048D800686F9AEC39F0BB0E906F916BA4C092F0A0
:1048E800A5C093F0C3EC39F0BBBF0CD0BB0E646F0E
:1048F800656BA6C066F0A7C067F0100E686FF5EC90
:1049080035F01ED0BB0E646F656BA6C066F0A7C0FD
:1049180067F0100E686FF5EC35F0CB6BCB51AB0F31
:10492800D96EDA6ADF50AA6FCB51A625D96E000E70
:10493800A721DA6EAA51DF1ACB2B0F0ECB65EED763
:10494800A6C0D9FFA7C0DAFFDFBE0CD0A6C064F0AE
:10495800A7C065F0A8C066F0A9C067F0100E686F20
:10496800F5EF35F0A6C064F0A7C065F0A8C066F002
:10497800A9C067F0100E686FF5EC35F0CB6BCB5122
:10498800A825D96E000EA921DA6ECB51AB0FE96EBE
:10499800EA6AEF50AA6FCB51A825E96E000EA9214B
:1049A800EA6EEF50AA19DF6ECB2B0F0ECB65E7D757
:1049B8000F0CE652020103B175D0D951D75D54E30B
:1049C80006EC37F0556E0D0E5526FF0E55C0E3FF69
:1049D800E3504B6E4C6A0201D4514B5CD5514C5894
:1049E80033E3010E57EC33F000092BE1F00E946F1E
:1049F800040E956FD4C296F0FAEC17F094C04BF001
:104A080095C04CF04B504C101CE102010251F00BC8
:104A18000109026FD92BD9B147D0DF5145E0D951EF
:104A28004B6E4C6AD751546E556A542A000E552263
:104A38004B50541803E14C50551836E075EC2DF0E6
:104A480033D08CEC31F030D015EC3CF001017251D0
:104A580073112AE0000E0001646F656F666F040E23
:104A6800676F01D821D013D0D951D75D1DE203B1AA
:104A78001BD015EC3CF001017251731115E0000ECA
:104A88000001646F656F666F676F01D80DD0050010
:104A98000101FA6E7251FD6E7351FE6EF850FF6E91
:104AA800FA50120015EC3CF0E552E5521200666F20
:104AB800070E0201EB6FEC6B000166510E0D050E3F
:104AC800F324D96E040EF420DA6E64C0DFFF665159
:104AD8000E0D0D0EF324D96E040EF420DA6E000EBE
:104AE800DB82676B4ED067510E0D050EF324D96E2D
:104AF800040EF420DA6EDF500F0B0001656F02011F
:104B0800EB510001655D16E267510E0D040EF324AA
:104B1800D96E040EF420DA6EDE040CE167510E0D36
:104B2800050EF324D96E040EF420DA6EDF500F0B55
:104B38000201EB6F000167510E0D050EF324D96ECB
:104B4800040EF420DA6EDF380F0B0201EC6117D087
:104B5800000167510E0D040EF324D96E040EF420E3
:104B6800DA6EDE040CE167510E0D050EF324D96EE2
:104B7800040EF420DA6EDF380F0B0201EC6F00012F
:104B8800672B0201ED510001675DADE30201DF51C2
:104B9800EC5D02E2ECC2DFF2EB51DF5DD8A0EBC2C4
:104BA800DFF2120000018669876988698969C6ECA5
:104BB80026F06AC082F06BC083F06CC084F06DC0D0
:104BC80085F08A6B5AD08A51080D040EF324D96EE9
:104BD800030EF420DA6EDE044FE18A51080D000E50
:104BE800F324D96E030EF420DA6EDE50825DDE50B7
:104BF8008359DE508459DE5085590DE38A51080DDA
:104C0800000EF324D96E030EF420DA6EDE6ADE6A33
:104C1800DE6ADD6A31D08A51080D000EF324D96EA0
:104C2800030EF420DA6E8251DE5E8351DE5A84511F
:104C3800DE5A8551DE5A8A51080D000EF324D96ECA
:104C4800030EF420DA6E8651DE5C8751DE588851F7
:104C5800DE588951DE5810E28A51080D000EF324FF
:104C6800D96E030EF420DA6EDECF86F0DECF87F041
:104C7800DECF88F0DECF89F08A2B01017751000161
:104C88008A5DA1E386C07AF087C07BF088C07CF09B
:104C980089C07DF0120023682468256826683CECEA
:104CA80027F007C01FF008C020F009C021F00AC093
:104CB80022F0276A5AD02750080D040EF324D96E23
:104CC800030EF420DA6EDE044FE12750080D000EC3
:104CD800F324D96E030EF420DA6EDE501F5CDE502A
:104CE8002058DE502158DE5022580DE32750080D79
:104CF800000EF324D96E030EF420DA6EDE6ADE6A43
:104D0800DE6ADD6A31D02750080D000EF324D96E13
:104D1800030EF420DA6E1F50DE5E2050DE5A21505A
:104D2800DE5A2250DE5A2750080D000EF324D96EA1
:104D3800030EF420DA6E2350DE5C2450DE58255032
:104D4800DE582650DE5810E22750080D000EF324D6
:104D5800D96E030EF420DA6EDECF23F0DECF24F016
:104D6800DECF25F0DECF26F0272A01017751275C18
:104D7800A2E323C017F024C018F025C019F026C0FC
:104D88001AF0120087EC3AF064C03EF065C03FF0BC
:104D980049043DE1496A44503E5C6E6F45503F58B6
:104DA8006F6F706BD8A070077051716F34506E5D63
:104DB800726F35506F59736F36507059746F375022
:104DC8007159756F38507225766F39507321776F26
:104DD8003A507421786F3B507521796F000E762513
:104DE800306E000E7721316E010E7821326E000E82
:104DF8007921336E3EC034F03FC035F0366A376AE9
:104E0800386A396A3A6A3B6A446A456A28D0445023
:104E18003E5C6E6F45503F586F6F706B716B3450CE
:104E28006E5D726F35506F59736F36507059746F6D
:104E380037507159756F38507225306E395073215B
:104E4800316E3A507421326E3B507521336E3050BA
:104E5800342631503522325036223350372230C072
:104E68006AF031C06BF032C06CF033C06DF01200E4
:104E780097EC3AF001C03EF002C03FF049043DE132
:104E8800496A44503E5C0B6E45503F580C6E0D6AA3
:104E9800D8A00D060D500E6E34500B5C0F6E3550B9
:104EA8000C58106E36500D58116E37500E58126E41
:104EB80038500F24136E39501020146E3A501120B8
:104EC800156E3B501220166E000E1324306E000E25
:104ED8001420316E010E1520326E000E1620336E2E
:104EE8003EC034F03FC035F0366A376A386A396AEE
:104EF8003A6A3B6A446A456A28D044503E5C0B6E65
:104F080045503F580C6E0D6A0E6A34500B5C0F6E9C
:104F180035500C58106E36500D58116E37500E58CB
:104F2800126E38500F24306E39501020316E3A50BE
:104F38001120326E3B501220336E305034263150DF
:104F48003522325036223350372230C007F031C074
:104F580008F032C009F033C00AF012000001826F75
:104F6800816B82C077F0786B56EC3AF07729836FC3
:104F780083C080F054D0846B47D084510E0D040E4A
:104F8800F324D96E040EF420DA6EDE043BE184517A
:104F98000E0D080EF324D96E040EF420DA6EDE50DE
:104FA800DE10DE10DE102EE184510E0D050EF32406
:104FB800D96E040EF420DA6EDF500F0B00017C6FFF
:104FC8007C510201DF5D1EE3000184510E0D050EC8
:104FD800F324D96E040EF420DA6EDF380F0B7C6FE1
:104FE8000201DF5100017C5D0DE379510AE1845132
:104FF8000E0D0C0EF324D96E040EF420DA6EDE04C6
:1050080001E183070001842B8251845D02E2835110
:10501800B4E18051831903E1090E816F02D08351F5
:10502800AAE1845107E084057AC0D9FF7BC0DAFF82
:10503800DF6E02D0090E816F815112007D6A7C6A91
:10504800796A7E6A7A6A7F6A7B6A806A8568866816
:105058008168DF0E876E82680F0E886EF90E836E88
:105068009F0E846EE00E0E019A6F7F0EA76FAF69D8
:10507800BC69B4699269A669B369AE699969BB6983
:105088009169A1690F0EC06FAD6BB26B906BBA6B73
:10509800986BBF6BA06BA56B9399948995898A0EC1
:1050A8000001646F790E656F36EC3CF00E012989BA
:1050B800000EF2BE010E0001666FF29E550E0D0144
:1050C800EF6FAA0EEF6FEF91F151C00B0909F16F65
:1050D800F351C00B0B09F36F1C0E0E016F6F0D011E
:1050E800F051C00B0809F06FF251C00B0A09F26FBA
:1050F8001B0E0E01706F1D51C00B1F091D6F550E41
:105108000D01EF6FAA0EEF6FEF81000166A102D0CB
:10511800F28EAA0CF29E120071C064F072C065F0A3
:1051280073C066F074C067F0090E0001686F3D0E29
:10513800696F6A6B6B6BAAEC30F064C079F065C07C
:105148007AF066C07BF067C07CF071C064F072C012
:1051580065F073C066F074C067F0090E686F3D0EA5
:10516800696F6A6B6B6B26EC33F064C075F065C0D1
:1051780076F066C077F067C078F07BC07CF07AC0C4
:105188007BF079C07AF0796B77C078F076C077F0E9
:1051980075C076F0756B75C064F076C065F077C041
:1051A80066F078C067F0090E686F3D0E696F6A6B2C
:1051B8006B6BAAEC30F064C075F065C076F066C021
:1051C80077F067C078F07551792776517A2377514F
:1051D8007B2378517C237BC066F0060ED4EC3AF032
:1051E8007AC066F0070ED4EC3AF079C066F0080E83
:1051F800D4EF3AF06E6F0001695108E1060E6E199E
:10520800D8B41200070E6E1901E11200070E6E17CE
:10521800010E6917EAEC39F06F6F6FAF03D0010E1A
:105228006B6F01D06B6B6F51070B6D6F6B51691909
:1052380018E06D5108E06F51F80B666F010ED4EC61
:105248003AF000016D6B695103E1780E6F1704D0D5
:105258006F51780B80096F6F6FC066F0010ED4EC48
:105268003AF000016D516E19D8B412006E5112E077
:105278006A0510E1410EEAEC39F06C6F695103E1FF
:10528800300E6C1302D0CF0E6C176CC066F0410E56
:10529800D4EC3AF0F80E00016F176E516F136FC01F
:1052A80066F0010ED4EC3AF000016A05D8A41200A9
:1052B8006E5105E0A8EC3CF00009FCE01200010E7C
:1052C800646F656B666B676B85EF39F0120EEAECFD
:1052D80039F0ED6F700E666F120ED4EC3AF00001E3
:1052E800ED51500B500AD8A412000101A2512DEC27
:1052F8003BF01C0EEAEC39F0EE6F0101955104E029
:105308000001EDABEEAD37D0130EEAEC39F0010138
:105318009D6F0001666B0D0ED4EC3AF0BAEC3CF0D0
:10532800000E68EC3CF00001EE6B0DD0EE5101016F
:105338009E25D96E000E9F21DA6EFF0E68EC3CF0B8
:10534800DF6E0001EE2B01019D510001EE5DEEE3E1
:10535800B8EC3CF001019C85190EEAEC39F001012A
:10536800AB6F040E0001646F0101AB5195EC34F092
:105378000101AB6F02D001019C8791C169F0000E59
:1053880000016A6FFEEC28F001019C939EC16BF14D
:105398009FC16CF19DC16DF14BEF00F000016A6F88
:1053A8000101965127E100016A51800A830F02E248
:1053B800FD0E6A6F6A51800A700F02E30F0E6A6F62
:1053C8004D0EEAEC39F0696FF80E6917698569C006
:1053D80066F04D0ED4EC3AF000016AAF05D0030E2A
:1053E8006A276A51200902D06A517009666F090E4E
:1053F800D4EF3AF000016A51800A7E0F02E2020EF1
:105408006A6F6A51800A6C0F02E3140E05D06A5164
:10541800800A6E0F02E3110E6A6F0B0EEAEC39F088
:10542800686F4D0EEAEC39F0696FF80E6917140EC3
:105438006A1906E1070E69130F0E6A6F689B04D09C
:105448006985FE0E6A27688B69C066F04D0ED4EC3C
:105458003AF000016A518009666F090ED4EC3AF0FF
:1054680068C066F00B0ED4EF3AF01FEC3BF0F28EFA
:10547800F28C7B84860E0001A46F790EA56F380E1E
:10548800A66F790EA76FB6EC33F0E10E00016E6FD0
:10549800010E6F6F46EC39F0D10E00016E6F010EF0
:1054A8006F6F5BEC39F0400E0001646F650E656F3D
:1054B800000E666B676B71EC3BF0010E64EC2EF02E
:1054C800050E02EC39F003D0C0EC37F07B940101F3
:1054D8007651FAE0010E0001F46FF56BC0EC37F07D
:1054E8000001F40505E1F46BABEC35F0A2EC37F004
:1054F800780E0001F51906E1F56B010EF46F000E48
:1055080060EC36F00001F66BF76B060EF36F300EA9
:10551800E82EFED7F32FFCD700D00001F64BF72B6F
:10552800F7BFF3D7E80EF65D030EF759EEE3F52B58
:10553800D5D7020103B157D0A2EC3CF0556E55B255
:105548004ED002010251F00B0509026FC5EC3AF08A
:10555800A5EC3CF018C276F019C277F01AC278F0C0
:105568001BC279F002011C51D7EC39F0020112512B
:105578002FE1850E1C25F66EF76A7F0EF7220800CC
:10558800F5500001946F956B02EC16F094C04BF047
:1055980095C04CF04B504C102EE015EC3CF00EEC46
:1055A8003CF001017251731126E0000E0001646F96
:1055B800656F666F676F01D81ED005000101FA6E2E
:1055C8007251FD6E7351FE6EF850FF6EFA50120064
:1055D8000251F00B0909026FF6EC31F00CD0010E04
:1055E8000201F16F08D000A502D0009502990EECD7
:1055F8003CF015EC3CF0E5521200E76F020103A104
:1056080002BF120002A912000001E15103E1E451B6
:1056180001E0120006EC37F0E56FE451E55D01E2C8
:1056280012000201062908E1072906E1082904E118
:10563800092902E10483120002510F0B03E0125101
:1056480001E11200010E57EC33F0E66FE65101E07C
:105658001200020E0201121902E1C5EC3AF0E1C093
:1056680066F1E2C067F1E3C068F1E4C069F10101E5
:105678006A6B0001E751A4EC0DF0F00E0001946F85
:10568800040E956FD4C296F0FAEC17F09451951168
:10569800D8A412000201062B000E072308230923B1
:1056A8000001E70502E1020100810201008B0251BD
:1056B800F00B0109026F12003C0E0001646F5A0ED4
:1056C800656F666B0201E251D1EC38F03A0E646FF7
:1056D800550E656F666B0201E351D1EC38F02C0E64
:1056E800646F400E656F666B0201E751D1EC38F0CC
:1056F8003C0E646F5A0E656F666B0201E451D1EC83
:1057080038F03A0E646F550E656F666B0201E5510D
:10571800D1EC38F0BA0E646F490E656F666B020102
:10572800E851D1EC38F04E0E646F750E656F666BFC
:105738000201E651D1EC38F0AC0E646F620E656F71
:10574800666B0201EA51D1EC38F0540E646F450ED5
:10575800656F666B0201F351D1EC38F02A0E646F65
:10576800240E656F666B0201E951D1EF38F0070E20
:10577800EB6FEC6B0001656B4ED065510E0D050E9D
:10578800F324D96E040EF420DA6EDF500F0B0001FB
:10579800646F0201EB510001645D16E265510E0D64
:1057A800040EF324D96E040EF420DA6EDE040CE144
:1057B80065510E0D050EF324D96E040EF420DA6E31
:1057C800DF500F0B0201EB6F000165510E0D050E46
:1057D800F324D96E040EF420DA6EDF380F0B0201C1
:1057E800EC6117D0000165510E0D040EF324D96E3B
:1057F800040EF420DA6EDE040CE165510E0D050E80
:10580800F324D96E040EF420DA6EDF380F0B020190
:10581800EC6F0001652B0201ED510001655DADE300
:105828001200756F0001766BAF0E646F010E656F25
:10583800676B666B696B100E686F9AEC39F073C012
:10584800AFF1050E7627AF0E7625D96EDA6A010E0E
:10585800DA2275C0DFFF762B745112E1AF0E762580
:10586800646F656B010E65231E0E666F020E676F0F
:10587800696B040E686F6AEC34F0040E762710D05A
:10588800AF0E7625646F656B010E6523620E666F39
:10589800020E676F696B040E686F6AEC34F0EDD71F
:1058A800AF0E7625646F656B010E65236E0E666F0D
:1058B800676B696B040E686F6AEC34F0040E762728
:1058C800762BAF0E7625D96EDA6A010EDA2272C00F
:1058D800DFFF1200F29E0001EC6B4DD0EC51080D79
:1058E800040EF324D96E030EF420DA6EDE0441E1CF
:1058F800EC51080D000EF324D96E030EF420DA6E75
:10590800DE50DE10DE10DE1034E1EC51080D040E1E
:10591800F324D96E030EF420DA6EDF6AEC51080D19
:10592800060EF324D96E030EF420DA6EDE50DE1074
:1059380020E0F28EEC51080D050EF324D96E030E0B
:10594800F420DA6EDF50E66EEC51080D060EF324F3
:10595800D96E030EF420DA6E01D80AD00500FA6E6B
:10596800DE50FD6EDE50FE6EF850FF6EFA501200EB
:10597800F29E0001EC2B010177510001EC5DAEE3D2
:10598800F28E120000016A6B6B6B4DD06B51020DE9
:10599800A80EF324D96E020EF420DA6EDE2842E057
:1059A800FE0E646F65696B51020DA80EF324D96E63
:1059B800020EF420DA6EDF50666F676B645166275B
:1059C80065516723940E6625F66E7F0E6721F76E84
:1059D8000800F5506AC068F0696B6827000E6923F3
:1059E80069BF05D0695124E1100E685D21E2FE0E01
:1059F800646F65696B51020DA80EF324D96E020E0F
:105A0800F420DA6EDF50666F676B64516627655164
:105A18006723940E6625F66E7F0E6721F76E0800E1
:105A2800F5506A276B2B0201A75100016B5DAEE3AD
:105A38006A511200E652E652E652E652020103B1FA
:105A48004BD0020E121902E1C5EC3AF00201EF51F7
:105A5800175D04E3EF51175D176F01D0176BFCEC6E
:105A68003BF064C052F065C053F066C054F067C0A4
:105A780055F0FC0E52C0E3FFFD0E53C0E3FFFE0ECF
:105A880054C0E3FFFF0E55C0E3FF0251F00B0309BA
:105A9800026FA5EC3CF0E150FC0FD96EE250DA6ED3
:105AA800FF0EDA22DECF76F0DECF77F0DECF78F0A9
:105AB800DECF79F002011751D7EC39F0850E0201DB
:105AC8001725F66EF76A7F0EF7220800F5500001D9
:105AD800946F956B02EC16F0FB0EE126FF0EE222A6
